{
    "_format": "hh-sol-artifact-1",
    "contractName": "EruChefsNfts",
    "sourceName": "contracts/EruChefsNfts.sol",
    "abi": [
        {
            "inputs": [],
            "stateMutability": "payable",
            "type": "constructor"
        },
        {
            "anonymous": false,
            "inputs": [
                {
                    "indexed": true,
                    "internalType": "address",
                    "name": "owner",
                    "type": "address"
                },
                {
                    "indexed": true,
                    "internalType": "address",
                    "name": "approved",
                    "type": "address"
                },
                {
                    "indexed": true,
                    "internalType": "uint256",
                    "name": "tokenId",
                    "type": "uint256"
                }
            ],
            "name": "Approval",
            "type": "event"
        },
        {
            "anonymous": false,
            "inputs": [
                {
                    "indexed": true,
                    "internalType": "address",
                    "name": "owner",
                    "type": "address"
                },
                {
                    "indexed": true,
                    "internalType": "address",
                    "name": "operator",
                    "type": "address"
                },
                {
                    "indexed": false,
                    "internalType": "bool",
                    "name": "approved",
                    "type": "bool"
                }
            ],
            "name": "ApprovalForAll",
            "type": "event"
        },
        {
            "anonymous": false,
            "inputs": [
                {
                    "indexed": true,
                    "internalType": "address",
                    "name": "previousOwner",
                    "type": "address"
                },
                {
                    "indexed": true,
                    "internalType": "address",
                    "name": "newOwner",
                    "type": "address"
                }
            ],
            "name": "OwnershipTransferred",
            "type": "event"
        },
        {
            "anonymous": false,
            "inputs": [
                {
                    "indexed": true,
                    "internalType": "address",
                    "name": "from",
                    "type": "address"
                },
                {
                    "indexed": true,
                    "internalType": "address",
                    "name": "to",
                    "type": "address"
                },
                {
                    "indexed": true,
                    "internalType": "uint256",
                    "name": "tokenId",
                    "type": "uint256"
                }
            ],
            "name": "Transfer",
            "type": "event"
        },
        {
            "inputs": [
                {
                    "internalType": "address",
                    "name": "to",
                    "type": "address"
                },
                {
                    "internalType": "uint256",
                    "name": "tokenId",
                    "type": "uint256"
                }
            ],
            "name": "approve",
            "outputs": [],
            "stateMutability": "nonpayable",
            "type": "function"
        },
        {
            "inputs": [
                {
                    "internalType": "address",
                    "name": "owner",
                    "type": "address"
                }
            ],
            "name": "balanceOf",
            "outputs": [
                {
                    "internalType": "uint256",
                    "name": "",
                    "type": "uint256"
                }
            ],
            "stateMutability": "view",
            "type": "function"
        },
        {
            "inputs": [
                {
                    "internalType": "uint256",
                    "name": "tokenId",
                    "type": "uint256"
                }
            ],
            "name": "getApproved",
            "outputs": [
                {
                    "internalType": "address",
                    "name": "",
                    "type": "address"
                }
            ],
            "stateMutability": "view",
            "type": "function"
        },
        {
            "inputs": [
                {
                    "internalType": "address",
                    "name": "owner",
                    "type": "address"
                },
                {
                    "internalType": "address",
                    "name": "operator",
                    "type": "address"
                }
            ],
            "name": "isApprovedForAll",
            "outputs": [
                {
                    "internalType": "bool",
                    "name": "",
                    "type": "bool"
                }
            ],
            "stateMutability": "view",
            "type": "function"
        },
        {
            "inputs": [],
            "name": "isPublicMintEnabled",
            "outputs": [
                {
                    "internalType": "bool",
                    "name": "",
                    "type": "bool"
                }
            ],
            "stateMutability": "view",
            "type": "function"
        },
        {
            "inputs": [],
            "name": "maxPerWallet",
            "outputs": [
                {
                    "internalType": "uint256",
                    "name": "",
                    "type": "uint256"
                }
            ],
            "stateMutability": "view",
            "type": "function"
        },
        {
            "inputs": [],
            "name": "maxSupply",
            "outputs": [
                {
                    "internalType": "uint256",
                    "name": "",
                    "type": "uint256"
                }
            ],
            "stateMutability": "view",
            "type": "function"
        },
        {
            "inputs": [
                {
                    "internalType": "uint256",
                    "name": "quantity_",
                    "type": "uint256"
                }
            ],
            "name": "mint",
            "outputs": [],
            "stateMutability": "payable",
            "type": "function"
        },
        {
            "inputs": [],
            "name": "mintPrice",
            "outputs": [
                {
                    "internalType": "uint256",
                    "name": "",
                    "type": "uint256"
                }
            ],
            "stateMutability": "view",
            "type": "function"
        },
        {
            "inputs": [],
            "name": "name",
            "outputs": [
                {
                    "internalType": "string",
                    "name": "",
                    "type": "string"
                }
            ],
            "stateMutability": "view",
            "type": "function"
        },
        {
            "inputs": [],
            "name": "owner",
            "outputs": [
                {
                    "internalType": "address",
                    "name": "",
                    "type": "address"
                }
            ],
            "stateMutability": "view",
            "type": "function"
        },
        {
            "inputs": [
                {
                    "internalType": "uint256",
                    "name": "tokenId",
                    "type": "uint256"
                }
            ],
            "name": "ownerOf",
            "outputs": [
                {
                    "internalType": "address",
                    "name": "",
                    "type": "address"
                }
            ],
            "stateMutability": "view",
            "type": "function"
        },
        {
            "inputs": [],
            "name": "renounceOwnership",
            "outputs": [],
            "stateMutability": "nonpayable",
            "type": "function"
        },
        {
            "inputs": [
                {
                    "internalType": "address",
                    "name": "from",
                    "type": "address"
                },
                {
                    "internalType": "address",
                    "name": "to",
                    "type": "address"
                },
                {
                    "internalType": "uint256",
                    "name": "tokenId",
                    "type": "uint256"
                }
            ],
            "name": "safeTransferFrom",
            "outputs": [],
            "stateMutability": "nonpayable",
            "type": "function"
        },
        {
            "inputs": [
                {
                    "internalType": "address",
                    "name": "from",
                    "type": "address"
                },
                {
                    "internalType": "address",
                    "name": "to",
                    "type": "address"
                },
                {
                    "internalType": "uint256",
                    "name": "tokenId",
                    "type": "uint256"
                },
                {
                    "internalType": "bytes",
                    "name": "data",
                    "type": "bytes"
                }
            ],
            "name": "safeTransferFrom",
            "outputs": [],
            "stateMutability": "nonpayable",
            "type": "function"
        },
        {
            "inputs": [
                {
                    "internalType": "address",
                    "name": "operator",
                    "type": "address"
                },
                {
                    "internalType": "bool",
                    "name": "approved",
                    "type": "bool"
                }
            ],
            "name": "setApprovalForAll",
            "outputs": [],
            "stateMutability": "nonpayable",
            "type": "function"
        },
        {
            "inputs": [
                {
                    "internalType": "string",
                    "name": "baseTokenUri_",
                    "type": "string"
                }
            ],
            "name": "setBaseTokenUri",
            "outputs": [],
            "stateMutability": "nonpayable",
            "type": "function"
        },
        {
            "inputs": [
                {
                    "internalType": "bool",
                    "name": "isPublicMintEnabled_",
                    "type": "bool"
                }
            ],
            "name": "setIsPublicMintEnables",
            "outputs": [],
            "stateMutability": "nonpayable",
            "type": "function"
        },
        {
            "inputs": [
                {
                    "internalType": "bytes4",
                    "name": "interfaceId",
                    "type": "bytes4"
                }
            ],
            "name": "supportsInterface",
            "outputs": [
                {
                    "internalType": "bool",
                    "name": "",
                    "type": "bool"
                }
            ],
            "stateMutability": "view",
            "type": "function"
        },
        {
            "inputs": [],
            "name": "symbol",
            "outputs": [
                {
                    "internalType": "string",
                    "name": "",
                    "type": "string"
                }
            ],
            "stateMutability": "view",
            "type": "function"
        },
        {
            "inputs": [
                {
                    "internalType": "uint256",
                    "name": "tokenId_",
                    "type": "uint256"
                }
            ],
            "name": "tokenURI",
            "outputs": [
                {
                    "internalType": "string",
                    "name": "",
                    "type": "string"
                }
            ],
            "stateMutability": "view",
            "type": "function"
        },
        {
            "inputs": [],
            "name": "totalSupply",
            "outputs": [
                {
                    "internalType": "uint256",
                    "name": "",
                    "type": "uint256"
                }
            ],
            "stateMutability": "view",
            "type": "function"
        },
        {
            "inputs": [
                {
                    "internalType": "address",
                    "name": "from",
                    "type": "address"
                },
                {
                    "internalType": "address",
                    "name": "to",
                    "type": "address"
                },
                {
                    "internalType": "uint256",
                    "name": "tokenId",
                    "type": "uint256"
                }
            ],
            "name": "transferFrom",
            "outputs": [],
            "stateMutability": "nonpayable",
            "type": "function"
        },
        {
            "inputs": [
                {
                    "internalType": "address",
                    "name": "newOwner",
                    "type": "address"
                }
            ],
            "name": "transferOwnership",
            "outputs": [],
            "stateMutability": "nonpayable",
            "type": "function"
        },
        {
            "inputs": [
                {
                    "internalType": "address",
                    "name": "",
                    "type": "address"
                }
            ],
            "name": "walletMints",
            "outputs": [
                {
                    "internalType": "uint256",
                    "name": "",
                    "type": "uint256"
                }
            ],
            "stateMutability": "view",
            "type": "function"
        },
        {
            "inputs": [],
            "name": "withdraw",
            "outputs": [],
            "stateMutability": "nonpayable",
            "type": "function"
        },
        {
            "inputs": [],
            "name": "withdrawWallet",
            "outputs": [
                {
                    "internalType": "address payable",
                    "name": "",
                    "type": "address"
                }
            ],
            "stateMutability": "view",
            "type": "function"
        }
    ],
    "bytecode": "0x60806040526040518060400160405280600981526020017f4572752d436865667300000000000000000000000000000000000000000000008152506040518060400160405280600281526020017f454300000000000000000000000000000000000000000000000000000000000081525081600090816200008191906200042b565b5080600190816200009391906200042b565b505050620000b6620000aa620000e360201b60201c565b620000eb60201b60201c565b66470de4df82000060078190555060006008819055506103e86009819055506003600a8190555062000512565b600033905090565b6000600660009054906101000a900473ffffffffffffffffffffffffffffffffffffffff16905081600660006101000a81548173ffffffffffffffffffffffffffffffffffffffff021916908373ffffffffffffffffffffffffffffffffffffffff1602179055508173ffffffffffffffffffffffffffffffffffffffff168173ffffffffffffffffffffffffffffffffffffffff167f8be0079c531659141344cd1fd0a4f28419497f9722a3daafe3b4186f6b6457e060405160405180910390a35050565b600081519050919050565b7f4e487b7100000000000000000000000000000000000000000000000000000000600052604160045260246000fd5b7f4e487b7100000000000000000000000000000000000000000000000000000000600052602260045260246000fd5b600060028204905060018216806200023357607f821691505b602082108103620002495762000248620001eb565b5b50919050565b60008190508160005260206000209050919050565b60006020601f8301049050919050565b600082821b905092915050565b600060088302620002b37fffffffffffffffffffffffffffffffffffffffffffffffffffffffffffffffff8262000274565b620002bf868362000274565b95508019841693508086168417925050509392505050565b6000819050919050565b6000819050919050565b60006200030c620003066200030084620002d7565b620002e1565b620002d7565b9050919050565b6000819050919050565b6200032883620002eb565b62000340620003378262000313565b84845462000281565b825550505050565b600090565b6200035762000348565b620003648184846200031d565b505050565b5b818110156200038c57620003806000826200034d565b6001810190506200036a565b5050565b601f821115620003db57620003a5816200024f565b620003b08462000264565b81016020851015620003c0578190505b620003d8620003cf8562000264565b83018262000369565b50505b505050565b600082821c905092915050565b60006200040060001984600802620003e0565b1980831691505092915050565b60006200041b8383620003ed565b9150826002028217905092915050565b6200043682620001b1565b67ffffffffffffffff811115620004525762000451620001bc565b5b6200045e82546200021a565b6200046b82828562000390565b600060209050601f831160018114620004a357600084156200048e578287015190505b6200049a85826200040d565b8655506200050a565b601f198416620004b3866200024f565b60005b82811015620004dd57848901518255600182019150602085019450602081019050620004b6565b86831015620004fd5784890151620004f9601f891682620003ed565b8355505b6001600288020188555050505b505050505050565b6136c580620005226000396000f3fe60806040526004361061019c5760003560e01c806370a08231116100ec578063a22cb4651161008a578063d5abeb0111610064578063d5abeb0114610593578063e985e9c5146105be578063f0293fd3146105fb578063f2fde38b146106385761019c565b8063a22cb46514610504578063b88d4fde1461052d578063c87b56dd146105565761019c565b80638da5cb5b116100c65780638da5cb5b1461046957806395652cfa1461049457806395d89b41146104bd578063a0712d68146104e85761019c565b806370a08231146103ea578063715018a61461042757806385d178f41461043e5761019c565b806323b872dd11610159578063453c231011610133578063453c23101461032e5780636352211e146103595780636523f68d146103965780636817c76c146103bf5761019c565b806323b872dd146102c55780633ccfd60b146102ee57806342842e0e146103055761019c565b80630116bc2d146101a157806301ffc9a7146101cc57806306fdde0314610209578063081812fc14610234578063095ea7b31461027157806318160ddd1461029a575b600080fd5b3480156101ad57600080fd5b506101b6610661565b6040516101c39190612040565b60405180910390f35b3480156101d857600080fd5b506101f360048036038101906101ee91906120c7565b610674565b6040516102009190612040565b60405180910390f35b34801561021557600080fd5b5061021e610756565b60405161022b9190612184565b60405180910390f35b34801561024057600080fd5b5061025b600480360381019061025691906121dc565b6107e8565b604051610268919061224a565b60405180910390f35b34801561027d57600080fd5b5061029860048036038101906102939190612291565b61082e565b005b3480156102a657600080fd5b506102af610945565b6040516102bc91906122e0565b60405180910390f35b3480156102d157600080fd5b506102ec60048036038101906102e791906122fb565b61094b565b005b3480156102fa57600080fd5b506103036109ab565b005b34801561031157600080fd5b5061032c600480360381019061032791906122fb565b610a84565b005b34801561033a57600080fd5b50610343610aa4565b60405161035091906122e0565b60405180910390f35b34801561036557600080fd5b50610380600480360381019061037b91906121dc565b610aaa565b60405161038d919061224a565b60405180910390f35b3480156103a257600080fd5b506103bd60048036038101906103b8919061237a565b610b30565b005b3480156103cb57600080fd5b506103d4610b55565b6040516103e191906122e0565b60405180910390f35b3480156103f657600080fd5b50610411600480360381019061040c91906123a7565b610b5b565b60405161041e91906122e0565b60405180910390f35b34801561043357600080fd5b5061043c610c12565b005b34801561044a57600080fd5b50610453610c26565b60405161046091906123f5565b60405180910390f35b34801561047557600080fd5b5061047e610c4c565b60405161048b919061224a565b60405180910390f35b3480156104a057600080fd5b506104bb60048036038101906104b69190612475565b610c76565b005b3480156104c957600080fd5b506104d2610c94565b6040516104df9190612184565b60405180910390f35b61050260048036038101906104fd91906121dc565b610d26565b005b34801561051057600080fd5b5061052b600480360381019061052691906124c2565b610f01565b005b34801561053957600080fd5b50610554600480360381019061054f9190612632565b610f17565b005b34801561056257600080fd5b5061057d600480360381019061057891906121dc565b610f79565b60405161058a9190612184565b60405180910390f35b34801561059f57600080fd5b506105a8610ff5565b6040516105b591906122e0565b60405180910390f35b3480156105ca57600080fd5b506105e560048036038101906105e091906126b5565b610ffb565b6040516105f29190612040565b60405180910390f35b34801561060757600080fd5b50610622600480360381019061061d91906123a7565b61108f565b60405161062f91906122e0565b60405180910390f35b34801561064457600080fd5b5061065f600480360381019061065a91906123a7565b6110a7565b005b600b60009054906101000a900460ff1681565b60007f80ac58cd000000000000000000000000000000000000000000000000000000007bffffffffffffffffffffffffffffffffffffffffffffffffffffffff1916827bffffffffffffffffffffffffffffffffffffffffffffffffffffffff1916148061073f57507f5b5e139f000000000000000000000000000000000000000000000000000000007bffffffffffffffffffffffffffffffffffffffffffffffffffffffff1916827bffffffffffffffffffffffffffffffffffffffffffffffffffffffff1916145b8061074f575061074e8261112a565b5b9050919050565b60606000805461076590612724565b80601f016020809104026020016040519081016040528092919081815260200182805461079190612724565b80156107de5780601f106107b3576101008083540402835291602001916107de565b820191906000526020600020905b8154815290600101906020018083116107c157829003601f168201915b5050505050905090565b60006107f382611194565b6004600083815260200190815260200160002060009054906101000a900473ffffffffffffffffffffffffffffffffffffffff169050919050565b600061083982610aaa565b90508073ffffffffffffffffffffffffffffffffffffffff168373ffffffffffffffffffffffffffffffffffffffff16036108a9576040517f08c379a00000000000000000000000000000000000000000000000000000000081526004016108a0906127c7565b60405180910390fd5b8073ffffffffffffffffffffffffffffffffffffffff166108c86111df565b73ffffffffffffffffffffffffffffffffffffffff1614806108f757506108f6816108f16111df565b610ffb565b5b610936576040517f08c379a000000000000000000000000000000000000000000000000000000000815260040161092d90612859565b60405180910390fd5b61094083836111e7565b505050565b60085481565b61095c6109566111df565b826112a0565b61099b576040517f08c379a0000000000000000000000000000000000000000000000000000000008152600401610992906128eb565b60405180910390fd5b6109a6838383611335565b505050565b6109b361162e565b6000600d60009054906101000a900473ffffffffffffffffffffffffffffffffffffffff1673ffffffffffffffffffffffffffffffffffffffff16476040516109fb9061293c565b60006040518083038185875af1925050503d8060008114610a38576040519150601f19603f3d011682016040523d82523d6000602084013e610a3d565b606091505b5050905080610a81576040517f08c379a0000000000000000000000000000000000000000000000000000000008152600401610a789061299d565b60405180910390fd5b50565b610a9f83838360405180602001604052806000815250610f17565b505050565b600a5481565b600080610ab6836116ac565b9050600073ffffffffffffffffffffffffffffffffffffffff168173ffffffffffffffffffffffffffffffffffffffff1603610b27576040517f08c379a0000000000000000000000000000000000000000000000000000000008152600401610b1e90612a09565b60405180910390fd5b80915050919050565b610b3861162e565b80600b60006101000a81548160ff02191690831515021790555050565b60075481565b60008073ffffffffffffffffffffffffffffffffffffffff168273ffffffffffffffffffffffffffffffffffffffff1603610bcb576040517f08c379a0000000000000000000000000000000000000000000000000000000008152600401610bc290612a9b565b60405180910390fd5b600360008373ffffffffffffffffffffffffffffffffffffffff1673ffffffffffffffffffffffffffffffffffffffff168152602001908152602001600020549050919050565b610c1a61162e565b610c2460006116e9565b565b600d60009054906101000a900473ffffffffffffffffffffffffffffffffffffffff1681565b6000600660009054906101000a900473ffffffffffffffffffffffffffffffffffffffff16905090565b610c7e61162e565b8181600c9182610c8f929190612c72565b505050565b606060018054610ca390612724565b80601f0160208091040260200160405190810160405280929190818152602001828054610ccf90612724565b8015610d1c5780601f10610cf157610100808354040283529160200191610d1c565b820191906000526020600020905b815481529060010190602001808311610cff57829003601f168201915b5050505050905090565b600b60009054906101000a900460ff16610d75576040517f08c379a0000000000000000000000000000000000000000000000000000000008152600401610d6c90612d8e565b60405180910390fd5b60075481610d839190612ddd565b3414610dc4576040517f08c379a0000000000000000000000000000000000000000000000000000000008152600401610dbb90612e6b565b60405180910390fd5b60095481600854610dd59190612e8b565b1115610e16576040517f08c379a0000000000000000000000000000000000000000000000000000000008152600401610e0d90612f0b565b60405180910390fd5b600a5481600e60003373ffffffffffffffffffffffffffffffffffffffff1673ffffffffffffffffffffffffffffffffffffffff16815260200190815260200160002054610e649190612e8b565b1115610ea5576040517f08c379a0000000000000000000000000000000000000000000000000000000008152600401610e9c90612f77565b60405180910390fd5b6000600190505b81811015610efd5760006001600854610ec59190612e8b565b905060086000815480929190610eda90612f97565b9190505550610ee933826117af565b508080610ef590612f97565b915050610eac565b5050565b610f13610f0c6111df565b83836117cd565b5050565b610f28610f226111df565b836112a0565b610f67576040517f08c379a0000000000000000000000000000000000000000000000000000000008152600401610f5e906128eb565b60405180910390fd5b610f7384848484611939565b50505050565b6060610f8482611995565b610fc3576040517f08c379a0000000000000000000000000000000000000000000000000000000008152600401610fba9061302b565b60405180910390fd5b600c610fce836119d6565b604051602001610fdf929190613156565b6040516020818303038152906040529050919050565b60095481565b6000600560008473ffffffffffffffffffffffffffffffffffffffff1673ffffffffffffffffffffffffffffffffffffffff16815260200190815260200160002060008373ffffffffffffffffffffffffffffffffffffffff1673ffffffffffffffffffffffffffffffffffffffff16815260200190815260200160002060009054906101000a900460ff16905092915050565b600e6020528060005260406000206000915090505481565b6110af61162e565b600073ffffffffffffffffffffffffffffffffffffffff168173ffffffffffffffffffffffffffffffffffffffff160361111e576040517f08c379a0000000000000000000000000000000000000000000000000000000008152600401611115906131f7565b60405180910390fd5b611127816116e9565b50565b60007f01ffc9a7000000000000000000000000000000000000000000000000000000007bffffffffffffffffffffffffffffffffffffffffffffffffffffffff1916827bffffffffffffffffffffffffffffffffffffffffffffffffffffffff1916149050919050565b61119d81611995565b6111dc576040517f08c379a00000000000000000000000000000000000000000000000000000000081526004016111d390612a09565b60405180910390fd5b50565b600033905090565b816004600083815260200190815260200160002060006101000a81548173ffffffffffffffffffffffffffffffffffffffff021916908373ffffffffffffffffffffffffffffffffffffffff160217905550808273ffffffffffffffffffffffffffffffffffffffff1661125a83610aaa565b73ffffffffffffffffffffffffffffffffffffffff167f8c5be1e5ebec7d5bd14f71427d1e84f3dd0314c0f7b2291e5b200ac8c7c3b92560405160405180910390a45050565b6000806112ac83610aaa565b90508073ffffffffffffffffffffffffffffffffffffffff168473ffffffffffffffffffffffffffffffffffffffff1614806112ee57506112ed8185610ffb565b5b8061132c57508373ffffffffffffffffffffffffffffffffffffffff16611314846107e8565b73ffffffffffffffffffffffffffffffffffffffff16145b91505092915050565b8273ffffffffffffffffffffffffffffffffffffffff1661135582610aaa565b73ffffffffffffffffffffffffffffffffffffffff16146113ab576040517f08c379a00000000000000000000000000000000000000000000000000000000081526004016113a290613289565b60405180910390fd5b600073ffffffffffffffffffffffffffffffffffffffff168273ffffffffffffffffffffffffffffffffffffffff160361141a576040517f08c379a00000000000000000000000000000000000000000000000000000000081526004016114119061331b565b60405180910390fd5b6114278383836001611aa4565b8273ffffffffffffffffffffffffffffffffffffffff1661144782610aaa565b73ffffffffffffffffffffffffffffffffffffffff161461149d576040517f08c379a000000000000000000000000000000000000000000000000000000000815260040161149490613289565b60405180910390fd5b6004600082815260200190815260200160002060006101000a81549073ffffffffffffffffffffffffffffffffffffffff02191690556001600360008573ffffffffffffffffffffffffffffffffffffffff1673ffffffffffffffffffffffffffffffffffffffff168152602001908152602001600020600082825403925050819055506001600360008473ffffffffffffffffffffffffffffffffffffffff1673ffffffffffffffffffffffffffffffffffffffff16815260200190815260200160002060008282540192505081905550816002600083815260200190815260200160002060006101000a81548173ffffffffffffffffffffffffffffffffffffffff021916908373ffffffffffffffffffffffffffffffffffffffff160217905550808273ffffffffffffffffffffffffffffffffffffffff168473ffffffffffffffffffffffffffffffffffffffff167fddf252ad1be2c89b69c2b068fc378daa952ba7f163c4a11628f55a4df523b3ef60405160405180910390a46116298383836001611aaa565b505050565b6116366111df565b73ffffffffffffffffffffffffffffffffffffffff16611654610c4c565b73ffffffffffffffffffffffffffffffffffffffff16146116aa576040517f08c379a00000000000000000000000000000000000000000000000000000000081526004016116a190613387565b60405180910390fd5b565b60006002600083815260200190815260200160002060009054906101000a900473ffffffffffffffffffffffffffffffffffffffff169050919050565b6000600660009054906101000a900473ffffffffffffffffffffffffffffffffffffffff16905081600660006101000a81548173ffffffffffffffffffffffffffffffffffffffff021916908373ffffffffffffffffffffffffffffffffffffffff1602179055508173ffffffffffffffffffffffffffffffffffffffff168173ffffffffffffffffffffffffffffffffffffffff167f8be0079c531659141344cd1fd0a4f28419497f9722a3daafe3b4186f6b6457e060405160405180910390a35050565b6117c9828260405180602001604052806000815250611ab0565b5050565b8173ffffffffffffffffffffffffffffffffffffffff168373ffffffffffffffffffffffffffffffffffffffff160361183b576040517f08c379a0000000000000000000000000000000000000000000000000000000008152600401611832906133f3565b60405180910390fd5b80600560008573ffffffffffffffffffffffffffffffffffffffff1673ffffffffffffffffffffffffffffffffffffffff16815260200190815260200160002060008473ffffffffffffffffffffffffffffffffffffffff1673ffffffffffffffffffffffffffffffffffffffff16815260200190815260200160002060006101000a81548160ff0219169083151502179055508173ffffffffffffffffffffffffffffffffffffffff168373ffffffffffffffffffffffffffffffffffffffff167f17307eab39ab6107e8899845ad3d59bd9653f200f220920489ca2b5937696c318360405161192c9190612040565b60405180910390a3505050565b611944848484611335565b61195084848484611b0b565b61198f576040517f08c379a000000000000000000000000000000000000000000000000000000000815260040161198690613485565b60405180910390fd5b50505050565b60008073ffffffffffffffffffffffffffffffffffffffff166119b7836116ac565b73ffffffffffffffffffffffffffffffffffffffff1614159050919050565b6060600060016119e584611c92565b01905060008167ffffffffffffffff811115611a0457611a03612507565b5b6040519080825280601f01601f191660200182016040528015611a365781602001600182028036833780820191505090505b509050600082602001820190505b600115611a99578080600190039150507f3031323334353637383961626364656600000000000000000000000000000000600a86061a8153600a8581611a8d57611a8c6134a5565b5b04945060008503611a44575b819350505050919050565b50505050565b50505050565b611aba8383611de5565b611ac76000848484611b0b565b611b06576040517f08c379a0000000000000000000000000000000000000000000000000000000008152600401611afd90613485565b60405180910390fd5b505050565b6000611b2c8473ffffffffffffffffffffffffffffffffffffffff16612002565b15611c85578373ffffffffffffffffffffffffffffffffffffffff1663150b7a02611b556111df565b8786866040518563ffffffff1660e01b8152600401611b779493929190613529565b6020604051808303816000875af1925050508015611bb357506040513d601f19601f82011682018060405250810190611bb0919061358a565b60015b611c35573d8060008114611be3576040519150601f19603f3d011682016040523d82523d6000602084013e611be8565b606091505b506000815103611c2d576040517f08c379a0000000000000000000000000000000000000000000000000000000008152600401611c2490613485565b60405180910390fd5b805181602001fd5b63150b7a0260e01b7bffffffffffffffffffffffffffffffffffffffffffffffffffffffff1916817bffffffffffffffffffffffffffffffffffffffffffffffffffffffff191614915050611c8a565b600190505b949350505050565b600080600090507a184f03e93ff9f4daa797ed6e38ed64bf6a1f0100000000000000008310611cf0577a184f03e93ff9f4daa797ed6e38ed64bf6a1f0100000000000000008381611ce657611ce56134a5565b5b0492506040810190505b6d04ee2d6d415b85acef81000000008310611d2d576d04ee2d6d415b85acef81000000008381611d2357611d226134a5565b5b0492506020810190505b662386f26fc100008310611d5c57662386f26fc100008381611d5257611d516134a5565b5b0492506010810190505b6305f5e1008310611d85576305f5e1008381611d7b57611d7a6134a5565b5b0492506008810190505b6127108310611daa576127108381611da057611d9f6134a5565b5b0492506004810190505b60648310611dcd5760648381611dc357611dc26134a5565b5b0492506002810190505b600a8310611ddc576001810190505b80915050919050565b600073ffffffffffffffffffffffffffffffffffffffff168273ffffffffffffffffffffffffffffffffffffffff1603611e54576040517f08c379a0000000000000000000000000000000000000000000000000000000008152600401611e4b90613603565b60405180910390fd5b611e5d81611995565b15611e9d576040517f08c379a0000000000000000000000000000000000000000000000000000000008152600401611e949061366f565b60405180910390fd5b611eab600083836001611aa4565b611eb481611995565b15611ef4576040517f08c379a0000000000000000000000000000000000000000000000000000000008152600401611eeb9061366f565b60405180910390fd5b6001600360008473ffffffffffffffffffffffffffffffffffffffff1673ffffffffffffffffffffffffffffffffffffffff16815260200190815260200160002060008282540192505081905550816002600083815260200190815260200160002060006101000a81548173ffffffffffffffffffffffffffffffffffffffff021916908373ffffffffffffffffffffffffffffffffffffffff160217905550808273ffffffffffffffffffffffffffffffffffffffff16600073ffffffffffffffffffffffffffffffffffffffff167fddf252ad1be2c89b69c2b068fc378daa952ba7f163c4a11628f55a4df523b3ef60405160405180910390a4611ffe600083836001611aaa565b5050565b6000808273ffffffffffffffffffffffffffffffffffffffff163b119050919050565b60008115159050919050565b61203a81612025565b82525050565b60006020820190506120556000830184612031565b92915050565b6000604051905090565b600080fd5b600080fd5b60007fffffffff0000000000000000000000000000000000000000000000000000000082169050919050565b6120a48161206f565b81146120af57600080fd5b50565b6000813590506120c18161209b565b92915050565b6000602082840312156120dd576120dc612065565b5b60006120eb848285016120b2565b91505092915050565b600081519050919050565b600082825260208201905092915050565b60005b8381101561212e578082015181840152602081019050612113565b60008484015250505050565b6000601f19601f8301169050919050565b6000612156826120f4565b61216081856120ff565b9350612170818560208601612110565b6121798161213a565b840191505092915050565b6000602082019050818103600083015261219e818461214b565b905092915050565b6000819050919050565b6121b9816121a6565b81146121c457600080fd5b50565b6000813590506121d6816121b0565b92915050565b6000602082840312156121f2576121f1612065565b5b6000612200848285016121c7565b91505092915050565b600073ffffffffffffffffffffffffffffffffffffffff82169050919050565b600061223482612209565b9050919050565b61224481612229565b82525050565b600060208201905061225f600083018461223b565b92915050565b61226e81612229565b811461227957600080fd5b50565b60008135905061228b81612265565b92915050565b600080604083850312156122a8576122a7612065565b5b60006122b68582860161227c565b92505060206122c7858286016121c7565b9150509250929050565b6122da816121a6565b82525050565b60006020820190506122f560008301846122d1565b92915050565b60008060006060848603121561231457612313612065565b5b60006123228682870161227c565b93505060206123338682870161227c565b9250506040612344868287016121c7565b9150509250925092565b61235781612025565b811461236257600080fd5b50565b6000813590506123748161234e565b92915050565b6000602082840312156123905761238f612065565b5b600061239e84828501612365565b91505092915050565b6000602082840312156123bd576123bc612065565b5b60006123cb8482850161227c565b91505092915050565b60006123df82612209565b9050919050565b6123ef816123d4565b82525050565b600060208201905061240a60008301846123e6565b92915050565b600080fd5b600080fd5b600080fd5b60008083601f84011261243557612434612410565b5b8235905067ffffffffffffffff81111561245257612451612415565b5b60208301915083600182028301111561246e5761246d61241a565b5b9250929050565b6000806020838503121561248c5761248b612065565b5b600083013567ffffffffffffffff8111156124aa576124a961206a565b5b6124b68582860161241f565b92509250509250929050565b600080604083850312156124d9576124d8612065565b5b60006124e78582860161227c565b92505060206124f885828601612365565b9150509250929050565b600080fd5b7f4e487b7100000000000000000000000000000000000000000000000000000000600052604160045260246000fd5b61253f8261213a565b810181811067ffffffffffffffff8211171561255e5761255d612507565b5b80604052505050565b600061257161205b565b905061257d8282612536565b919050565b600067ffffffffffffffff82111561259d5761259c612507565b5b6125a68261213a565b9050602081019050919050565b82818337600083830152505050565b60006125d56125d084612582565b612567565b9050828152602081018484840111156125f1576125f0612502565b5b6125fc8482856125b3565b509392505050565b600082601f83011261261957612618612410565b5b81356126298482602086016125c2565b91505092915050565b6000806000806080858703121561264c5761264b612065565b5b600061265a8782880161227c565b945050602061266b8782880161227c565b935050604061267c878288016121c7565b925050606085013567ffffffffffffffff81111561269d5761269c61206a565b5b6126a987828801612604565b91505092959194509250565b600080604083850312156126cc576126cb612065565b5b60006126da8582860161227c565b92505060206126eb8582860161227c565b9150509250929050565b7f4e487b7100000000000000000000000000000000000000000000000000000000600052602260045260246000fd5b6000600282049050600182168061273c57607f821691505b60208210810361274f5761274e6126f5565b5b50919050565b7f4552433732313a20617070726f76616c20746f2063757272656e74206f776e6560008201527f7200000000000000000000000000000000000000000000000000000000000000602082015250565b60006127b16021836120ff565b91506127bc82612755565b604082019050919050565b600060208201905081810360008301526127e0816127a4565b9050919050565b7f4552433732313a20617070726f76652063616c6c6572206973206e6f7420746f60008201527f6b656e206f776e6572206f7220617070726f76656420666f7220616c6c000000602082015250565b6000612843603d836120ff565b915061284e826127e7565b604082019050919050565b6000602082019050818103600083015261287281612836565b9050919050565b7f4552433732313a2063616c6c6572206973206e6f7420746f6b656e206f776e6560008201527f72206f7220617070726f76656400000000000000000000000000000000000000602082015250565b60006128d5602d836120ff565b91506128e082612879565b604082019050919050565b60006020820190508181036000830152612904816128c8565b9050919050565b600081905092915050565b50565b600061292660008361290b565b915061293182612916565b600082019050919050565b600061294782612919565b9150819050919050565b7f5769746864726177616c206661696c6564000000000000000000000000000000600082015250565b60006129876011836120ff565b915061299282612951565b602082019050919050565b600060208201905081810360008301526129b68161297a565b9050919050565b7f4552433732313a20696e76616c696420746f6b656e2049440000000000000000600082015250565b60006129f36018836120ff565b91506129fe826129bd565b602082019050919050565b60006020820190508181036000830152612a22816129e6565b9050919050565b7f4552433732313a2061646472657373207a65726f206973206e6f74206120766160008201527f6c6964206f776e65720000000000000000000000000000000000000000000000602082015250565b6000612a856029836120ff565b9150612a9082612a29565b604082019050919050565b60006020820190508181036000830152612ab481612a78565b9050919050565b600082905092915050565b60008190508160005260206000209050919050565b60006020601f8301049050919050565b600082821b905092915050565b600060088302612b287fffffffffffffffffffffffffffffffffffffffffffffffffffffffffffffffff82612aeb565b612b328683612aeb565b95508019841693508086168417925050509392505050565b6000819050919050565b6000612b6f612b6a612b65846121a6565b612b4a565b6121a6565b9050919050565b6000819050919050565b612b8983612b54565b612b9d612b9582612b76565b848454612af8565b825550505050565b600090565b612bb2612ba5565b612bbd818484612b80565b505050565b5b81811015612be157612bd6600082612baa565b600181019050612bc3565b5050565b601f821115612c2657612bf781612ac6565b612c0084612adb565b81016020851015612c0f578190505b612c23612c1b85612adb565b830182612bc2565b50505b505050565b600082821c905092915050565b6000612c4960001984600802612c2b565b1980831691505092915050565b6000612c628383612c38565b9150826002028217905092915050565b612c7c8383612abb565b67ffffffffffffffff811115612c9557612c94612507565b5b612c9f8254612724565b612caa828285612be5565b6000601f831160018114612cd95760008415612cc7578287013590505b612cd18582612c56565b865550612d39565b601f198416612ce786612ac6565b60005b82811015612d0f57848901358255600182019150602085019450602081019050612cea565b86831015612d2c5784890135612d28601f891682612c38565b8355505b6001600288020188555050505b50505050505050565b7f6d696e74696e67206973206e6f7420656e61626c65642e000000000000000000600082015250565b6000612d786017836120ff565b9150612d8382612d42565b602082019050919050565b60006020820190508181036000830152612da781612d6b565b9050919050565b7f4e487b7100000000000000000000000000000000000000000000000000000000600052601160045260246000fd5b6000612de8826121a6565b9150612df3836121a6565b9250828202612e01816121a6565b91508282048414831517612e1857612e17612dae565b5b5092915050565b7f77726f6e67206d696e742076616c756500000000000000000000000000000000600082015250565b6000612e556010836120ff565b9150612e6082612e1f565b602082019050919050565b60006020820190508181036000830152612e8481612e48565b9050919050565b6000612e96826121a6565b9150612ea1836121a6565b9250828201905080821115612eb957612eb8612dae565b5b92915050565b7f736f6c64206f7574000000000000000000000000000000000000000000000000600082015250565b6000612ef56008836120ff565b9150612f0082612ebf565b602082019050919050565b60006020820190508181036000830152612f2481612ee8565b9050919050565b7f657863656564206d61782077616c6c6574000000000000000000000000000000600082015250565b6000612f616011836120ff565b9150612f6c82612f2b565b602082019050919050565b60006020820190508181036000830152612f9081612f54565b9050919050565b6000612fa2826121a6565b91507fffffffffffffffffffffffffffffffffffffffffffffffffffffffffffffffff8203612fd457612fd3612dae565b5b600182019050919050565b7f546f6b656e20646f65736e6f7420657869737400000000000000000000000000600082015250565b60006130156013836120ff565b915061302082612fdf565b602082019050919050565b6000602082019050818103600083015261304481613008565b9050919050565b600081905092915050565b6000815461306381612724565b61306d818661304b565b94506001821660008114613088576001811461309d576130d0565b60ff19831686528115158202860193506130d0565b6130a685612ac6565b60005b838110156130c8578154818901526001820191506020810190506130a9565b838801955050505b50505092915050565b60006130e4826120f4565b6130ee818561304b565b93506130fe818560208601612110565b80840191505092915050565b7f2e6a736f6e000000000000000000000000000000000000000000000000000000600082015250565b600061314060058361304b565b915061314b8261310a565b600582019050919050565b60006131628285613056565b915061316e82846130d9565b915061317982613133565b91508190509392505050565b7f4f776e61626c653a206e6577206f776e657220697320746865207a65726f206160008201527f6464726573730000000000000000000000000000000000000000000000000000602082015250565b60006131e16026836120ff565b91506131ec82613185565b604082019050919050565b60006020820190508181036000830152613210816131d4565b9050919050565b7f4552433732313a207472616e736665722066726f6d20696e636f72726563742060008201527f6f776e6572000000000000000000000000000000000000000000000000000000602082015250565b60006132736025836120ff565b915061327e82613217565b604082019050919050565b600060208201905081810360008301526132a281613266565b9050919050565b7f4552433732313a207472616e7366657220746f20746865207a65726f2061646460008201527f7265737300000000000000000000000000000000000000000000000000000000602082015250565b60006133056024836120ff565b9150613310826132a9565b604082019050919050565b60006020820190508181036000830152613334816132f8565b9050919050565b7f4f776e61626c653a2063616c6c6572206973206e6f7420746865206f776e6572600082015250565b60006133716020836120ff565b915061337c8261333b565b602082019050919050565b600060208201905081810360008301526133a081613364565b9050919050565b7f4552433732313a20617070726f766520746f2063616c6c657200000000000000600082015250565b60006133dd6019836120ff565b91506133e8826133a7565b602082019050919050565b6000602082019050818103600083015261340c816133d0565b9050919050565b7f4552433732313a207472616e7366657220746f206e6f6e20455243373231526560008201527f63656976657220696d706c656d656e7465720000000000000000000000000000602082015250565b600061346f6032836120ff565b915061347a82613413565b604082019050919050565b6000602082019050818103600083015261349e81613462565b9050919050565b7f4e487b7100000000000000000000000000000000000000000000000000000000600052601260045260246000fd5b600081519050919050565b600082825260208201905092915050565b60006134fb826134d4565b61350581856134df565b9350613515818560208601612110565b61351e8161213a565b840191505092915050565b600060808201905061353e600083018761223b565b61354b602083018661223b565b61355860408301856122d1565b818103606083015261356a81846134f0565b905095945050505050565b6000815190506135848161209b565b92915050565b6000602082840312156135a05761359f612065565b5b60006135ae84828501613575565b91505092915050565b7f4552433732313a206d696e7420746f20746865207a65726f2061646472657373600082015250565b60006135ed6020836120ff565b91506135f8826135b7565b602082019050919050565b6000602082019050818103600083015261361c816135e0565b9050919050565b7f4552433732313a20746f6b656e20616c7265616479206d696e74656400000000600082015250565b6000613659601c836120ff565b915061366482613623565b602082019050919050565b600060208201905081810360008301526136888161364c565b905091905056fea264697066735822122028c10f01c049c8915bd9024d14fd4d334c5b92bc90de3acbe2823d14704ecd2664736f6c63430008120033",
    "linkReferences": {},
    "deployedLinkReferences": {}
}